{
  "contractName": "Exchange",
  "abi": [
    {
      "inputs": [
        {
          "internalType": "address",
          "name": "_feeAccount",
          "type": "address"
        },
        {
          "internalType": "uint256",
          "name": "_feePercent",
          "type": "uint256"
        }
      ],
      "stateMutability": "nonpayable",
      "type": "constructor"
    },
    {
      "anonymous": false,
      "inputs": [
        {
          "indexed": false,
          "internalType": "uint256",
          "name": "id",
          "type": "uint256"
        },
        {
          "indexed": false,
          "internalType": "address",
          "name": "user",
          "type": "address"
        },
        {
          "indexed": false,
          "internalType": "address",
          "name": "tokenGet",
          "type": "address"
        },
        {
          "indexed": false,
          "internalType": "uint256",
          "name": "amountGet",
          "type": "uint256"
        },
        {
          "indexed": false,
          "internalType": "address",
          "name": "tokenGive",
          "type": "address"
        },
        {
          "indexed": false,
          "internalType": "uint256",
          "name": "amountGive",
          "type": "uint256"
        },
        {
          "indexed": false,
          "internalType": "uint256",
          "name": "timestamp",
          "type": "uint256"
        }
      ],
      "name": "Cancel",
      "type": "event"
    },
    {
      "anonymous": false,
      "inputs": [
        {
          "indexed": false,
          "internalType": "address",
          "name": "_token",
          "type": "address"
        },
        {
          "indexed": false,
          "internalType": "address",
          "name": "_user",
          "type": "address"
        },
        {
          "indexed": false,
          "internalType": "uint256",
          "name": "_amount",
          "type": "uint256"
        },
        {
          "indexed": false,
          "internalType": "uint256",
          "name": "_balance",
          "type": "uint256"
        }
      ],
      "name": "Deposit",
      "type": "event"
    },
    {
      "anonymous": false,
      "inputs": [
        {
          "indexed": false,
          "internalType": "uint256",
          "name": "id",
          "type": "uint256"
        },
        {
          "indexed": false,
          "internalType": "address",
          "name": "user",
          "type": "address"
        },
        {
          "indexed": false,
          "internalType": "address",
          "name": "tokenGet",
          "type": "address"
        },
        {
          "indexed": false,
          "internalType": "uint256",
          "name": "amountGet",
          "type": "uint256"
        },
        {
          "indexed": false,
          "internalType": "address",
          "name": "tokenGive",
          "type": "address"
        },
        {
          "indexed": false,
          "internalType": "uint256",
          "name": "amountGive",
          "type": "uint256"
        },
        {
          "indexed": false,
          "internalType": "uint256",
          "name": "timestamp",
          "type": "uint256"
        }
      ],
      "name": "Order",
      "type": "event"
    },
    {
      "anonymous": false,
      "inputs": [
        {
          "indexed": false,
          "internalType": "address",
          "name": "_token",
          "type": "address"
        },
        {
          "indexed": false,
          "internalType": "address",
          "name": "_user",
          "type": "address"
        },
        {
          "indexed": false,
          "internalType": "uint256",
          "name": "_amount",
          "type": "uint256"
        },
        {
          "indexed": false,
          "internalType": "uint256",
          "name": "_balance",
          "type": "uint256"
        }
      ],
      "name": "Withdraw",
      "type": "event"
    },
    {
      "stateMutability": "nonpayable",
      "type": "fallback"
    },
    {
      "inputs": [],
      "name": "_orderCount",
      "outputs": [
        {
          "internalType": "uint256",
          "name": "",
          "type": "uint256"
        }
      ],
      "stateMutability": "view",
      "type": "function"
    },
    {
      "inputs": [
        {
          "internalType": "uint256",
          "name": "",
          "type": "uint256"
        }
      ],
      "name": "canceldOrders",
      "outputs": [
        {
          "internalType": "bool",
          "name": "",
          "type": "bool"
        }
      ],
      "stateMutability": "view",
      "type": "function"
    },
    {
      "inputs": [],
      "name": "feeAccount",
      "outputs": [
        {
          "internalType": "address",
          "name": "",
          "type": "address"
        }
      ],
      "stateMutability": "view",
      "type": "function"
    },
    {
      "inputs": [],
      "name": "feePercent",
      "outputs": [
        {
          "internalType": "uint256",
          "name": "",
          "type": "uint256"
        }
      ],
      "stateMutability": "view",
      "type": "function"
    },
    {
      "inputs": [
        {
          "internalType": "uint256",
          "name": "",
          "type": "uint256"
        }
      ],
      "name": "orders",
      "outputs": [
        {
          "internalType": "uint256",
          "name": "id",
          "type": "uint256"
        },
        {
          "internalType": "address",
          "name": "user",
          "type": "address"
        },
        {
          "internalType": "address",
          "name": "tokenGet",
          "type": "address"
        },
        {
          "internalType": "uint256",
          "name": "amountGet",
          "type": "uint256"
        },
        {
          "internalType": "address",
          "name": "tokenGive",
          "type": "address"
        },
        {
          "internalType": "uint256",
          "name": "amountGive",
          "type": "uint256"
        },
        {
          "internalType": "uint256",
          "name": "timestamp",
          "type": "uint256"
        }
      ],
      "stateMutability": "view",
      "type": "function"
    },
    {
      "inputs": [
        {
          "internalType": "address",
          "name": "",
          "type": "address"
        },
        {
          "internalType": "address",
          "name": "",
          "type": "address"
        }
      ],
      "name": "tokens",
      "outputs": [
        {
          "internalType": "uint256",
          "name": "",
          "type": "uint256"
        }
      ],
      "stateMutability": "view",
      "type": "function"
    },
    {
      "inputs": [],
      "name": "depositEther",
      "outputs": [],
      "stateMutability": "payable",
      "type": "function"
    },
    {
      "inputs": [
        {
          "internalType": "uint256",
          "name": "_amount",
          "type": "uint256"
        }
      ],
      "name": "withdrawEther",
      "outputs": [],
      "stateMutability": "nonpayable",
      "type": "function"
    },
    {
      "inputs": [
        {
          "internalType": "address",
          "name": "_token",
          "type": "address"
        },
        {
          "internalType": "uint256",
          "name": "_amount",
          "type": "uint256"
        }
      ],
      "name": "depositToken",
      "outputs": [],
      "stateMutability": "nonpayable",
      "type": "function"
    },
    {
      "inputs": [
        {
          "internalType": "address",
          "name": "_token",
          "type": "address"
        },
        {
          "internalType": "uint256",
          "name": "_amount",
          "type": "uint256"
        }
      ],
      "name": "withdrawToken",
      "outputs": [],
      "stateMutability": "nonpayable",
      "type": "function"
    },
    {
      "inputs": [
        {
          "internalType": "address",
          "name": "_token",
          "type": "address"
        },
        {
          "internalType": "address",
          "name": "_user",
          "type": "address"
        }
      ],
      "name": "balanceOf",
      "outputs": [
        {
          "internalType": "uint256",
          "name": "",
          "type": "uint256"
        }
      ],
      "stateMutability": "view",
      "type": "function"
    },
    {
      "inputs": [
        {
          "internalType": "address",
          "name": "_tokenGet",
          "type": "address"
        },
        {
          "internalType": "uint256",
          "name": "_amountGet",
          "type": "uint256"
        },
        {
          "internalType": "address",
          "name": "_tokenGive",
          "type": "address"
        },
        {
          "internalType": "uint256",
          "name": "_amountGive",
          "type": "uint256"
        }
      ],
      "name": "makeOrder",
      "outputs": [],
      "stateMutability": "nonpayable",
      "type": "function"
    },
    {
      "inputs": [
        {
          "internalType": "uint256",
          "name": "_id",
          "type": "uint256"
        }
      ],
      "name": "cancelOrder",
      "outputs": [],
      "stateMutability": "nonpayable",
      "type": "function"
    },
    {
      "inputs": [
        {
          "internalType": "uint256",
          "name": "_id",
          "type": "uint256"
        }
      ],
      "name": "fillOrder",
      "outputs": [],
      "stateMutability": "nonpayable",
      "type": "function"
    }
  ],
  "bytecode": "0x60806040523480156200001157600080fd5b50604051620020073803806200200783398181016040528101906200003791906200012b565b816000806101000a81548173ffffffffffffffffffffffffffffffffffffffff021916908373ffffffffffffffffffffffffffffffffffffffff16021790555080600181905550505062000172565b600080fd5b600073ffffffffffffffffffffffffffffffffffffffff82169050919050565b6000620000b8826200008b565b9050919050565b620000ca81620000ab565b8114620000d657600080fd5b50565b600081519050620000ea81620000bf565b92915050565b6000819050919050565b6200010581620000f0565b81146200011157600080fd5b50565b6000815190506200012581620000fa565b92915050565b6000806040838503121562000145576200014462000086565b5b60006200015585828601620000d9565b9250506020620001688582860162000114565b9150509250929050565b611e8580620001826000396000f3fe6080604052600436106100e15760003560e01c806367b830ad1161007f5780639a5c90aa116100595780639a5c90aa1461029d5780639e281a98146102c6578063a85c38ef146102ef578063f7888aec14610332576100e2565b806367b830ad1461023f5780637fd6f15c1461026857806398ea5fca14610293576100e2565b8063508493bc116100bb578063508493bc14610183578063514fcac7146101c05780635a421799146101e957806365e17c9d14610214576100e2565b8063338b5dea146100f4578063391691b81461011d5780633bed33ce1461015a576100e2565b5b3480156100ee57600080fd5b50600080fd5b34801561010057600080fd5b5061011b600480360381019061011691906119d3565b61036f565b005b34801561012957600080fd5b50610144600480360381019061013f9190611a13565b6105fe565b6040516101519190611a5b565b60405180910390f35b34801561016657600080fd5b50610181600480360381019061017c9190611a13565b61061e565b005b34801561018f57600080fd5b506101aa60048036038101906101a59190611a76565b6108ba565b6040516101b79190611ac5565b60405180910390f35b3480156101cc57600080fd5b506101e760048036038101906101e29190611a13565b6108df565b005b3480156101f557600080fd5b506101fe610a29565b60405161020b9190611ac5565b60405180910390f35b34801561022057600080fd5b50610229610a2f565b6040516102369190611aef565b60405180910390f35b34801561024b57600080fd5b5061026660048036038101906102619190611a13565b610a53565b005b34801561027457600080fd5b5061027d610a77565b60405161028a9190611ac5565b60405180910390f35b61029b610a7d565b005b3480156102a957600080fd5b506102c460048036038101906102bf9190611b0a565b610c48565b005b3480156102d257600080fd5b506102ed60048036038101906102e891906119d3565b610e3b565b005b3480156102fb57600080fd5b5061031660048036038101906103119190611a13565b611151565b6040516103299796959493929190611b71565b60405180910390f35b34801561033e57600080fd5b5061035960048036038101906103549190611a76565b6111f3565b6040516103669190611ac5565b60405180910390f35b600073ffffffffffffffffffffffffffffffffffffffff168273ffffffffffffffffffffffffffffffffffffffff1614156103a957600080fd5b8173ffffffffffffffffffffffffffffffffffffffff166323b872dd3330846040518463ffffffff1660e01b81526004016103e693929190611be0565b6020604051808303816000875af1158015610405573d6000803e3d6000fd5b505050506040513d601f19601f820116820180604052508101906104299190611c43565b61043257600080fd5b6104c181600360008573ffffffffffffffffffffffffffffffffffffffff1673ffffffffffffffffffffffffffffffffffffffff16815260200190815260200160002060003373ffffffffffffffffffffffffffffffffffffffff1673ffffffffffffffffffffffffffffffffffffffff1681526020019081526020016000205461127a90919063ffffffff16565b600360008473ffffffffffffffffffffffffffffffffffffffff1673ffffffffffffffffffffffffffffffffffffffff16815260200190815260200160002060003373ffffffffffffffffffffffffffffffffffffffff1673ffffffffffffffffffffffffffffffffffffffff168152602001908152602001600020819055507fdcbc1c05240f31ff3ad067ef1ee35ce4997762752e3a095284754544f4c709d7823383600360008773ffffffffffffffffffffffffffffffffffffffff1673ffffffffffffffffffffffffffffffffffffffff16815260200190815260200160002060003373ffffffffffffffffffffffffffffffffffffffff1673ffffffffffffffffffffffffffffffffffffffff168152602001908152602001600020546040516105f29493929190611c70565b60405180910390a15050565b60056020528060005260406000206000915054906101000a900460ff1681565b80600360008073ffffffffffffffffffffffffffffffffffffffff1673ffffffffffffffffffffffffffffffffffffffff16815260200190815260200160002060003373ffffffffffffffffffffffffffffffffffffffff1673ffffffffffffffffffffffffffffffffffffffff1681526020019081526020016000205410156106a757600080fd5b61073681600360008073ffffffffffffffffffffffffffffffffffffffff1673ffffffffffffffffffffffffffffffffffffffff16815260200190815260200160002060003373ffffffffffffffffffffffffffffffffffffffff1673ffffffffffffffffffffffffffffffffffffffff168152602001908152602001600020546112a690919063ffffffff16565b600360008073ffffffffffffffffffffffffffffffffffffffff1673ffffffffffffffffffffffffffffffffffffffff16815260200190815260200160002060003373ffffffffffffffffffffffffffffffffffffffff1673ffffffffffffffffffffffffffffffffffffffff168152602001908152602001600020819055503373ffffffffffffffffffffffffffffffffffffffff166108fc829081150290604051600060405180830381858888f193505050501580156107fc573d6000803e3d6000fd5b507ff341246adaac6f497bc2a656f546ab9e182111d630394f0c57c710a59a2cb56760003383600360008073ffffffffffffffffffffffffffffffffffffffff1673ffffffffffffffffffffffffffffffffffffffff16815260200190815260200160002060003373ffffffffffffffffffffffffffffffffffffffff1673ffffffffffffffffffffffffffffffffffffffff168152602001908152602001600020546040516108af9493929190611c70565b60405180910390a150565b6003602052816000526040600020602052806000526040600020600091509150505481565b60006004600083815260200190815260200160002090503373ffffffffffffffffffffffffffffffffffffffff168160010160009054906101000a900473ffffffffffffffffffffffffffffffffffffffff1673ffffffffffffffffffffffffffffffffffffffff161461095257600080fd5b8181600001541461096257600080fd5b60016005600084815260200190815260200160002060006101000a81548160ff0219169083151502179055507f77de1da0be5f2d3b110d05c6694e5c4ff2d9da7cd23d84353ecf78c7b5acec6182338360020160009054906101000a900473ffffffffffffffffffffffffffffffffffffffff1684600301548560040160009054906101000a900473ffffffffffffffffffffffffffffffffffffffff1686600501548760060154604051610a1d9796959493929190611b71565b60405180910390a15050565b60025481565b60008054906101000a900473ffffffffffffffffffffffffffffffffffffffff1681565b6000600460008381526020019081526020016000209050610a73816112cd565b5050565b60015481565b610b0c34600360008073ffffffffffffffffffffffffffffffffffffffff1673ffffffffffffffffffffffffffffffffffffffff16815260200190815260200160002060003373ffffffffffffffffffffffffffffffffffffffff1673ffffffffffffffffffffffffffffffffffffffff1681526020019081526020016000205461127a90919063ffffffff16565b600360008073ffffffffffffffffffffffffffffffffffffffff1673ffffffffffffffffffffffffffffffffffffffff16815260200190815260200160002060003373ffffffffffffffffffffffffffffffffffffffff1673ffffffffffffffffffffffffffffffffffffffff168152602001908152602001600020819055507fdcbc1c05240f31ff3ad067ef1ee35ce4997762752e3a095284754544f4c709d760003334600360008073ffffffffffffffffffffffffffffffffffffffff1673ffffffffffffffffffffffffffffffffffffffff16815260200190815260200160002060003373ffffffffffffffffffffffffffffffffffffffff1673ffffffffffffffffffffffffffffffffffffffff16815260200190815260200160002054604051610c3e9493929190611c70565b60405180910390a1565b610c5e600160025461127a90919063ffffffff16565b6002819055506040518060e0016040528060025481526020013373ffffffffffffffffffffffffffffffffffffffff1681526020018573ffffffffffffffffffffffffffffffffffffffff1681526020018481526020018373ffffffffffffffffffffffffffffffffffffffff168152602001828152602001428152506004600060025481526020019081526020016000206000820151816000015560208201518160010160006101000a81548173ffffffffffffffffffffffffffffffffffffffff021916908373ffffffffffffffffffffffffffffffffffffffff16021790555060408201518160020160006101000a81548173ffffffffffffffffffffffffffffffffffffffff021916908373ffffffffffffffffffffffffffffffffffffffff1602179055506060820151816003015560808201518160040160006101000a81548173ffffffffffffffffffffffffffffffffffffffff021916908373ffffffffffffffffffffffffffffffffffffffff16021790555060a0820151816005015560c082015181600601559050507f9d33853d43e3607b4cc01fdc78338ff2dca6fef7db9232dae6d3eb55fbc3b109600254338686868642604051610e2d9796959493929190611b71565b60405180910390a150505050565b600073ffffffffffffffffffffffffffffffffffffffff168273ffffffffffffffffffffffffffffffffffffffff161415610e7557600080fd5b80600360008473ffffffffffffffffffffffffffffffffffffffff1673ffffffffffffffffffffffffffffffffffffffff16815260200190815260200160002060003373ffffffffffffffffffffffffffffffffffffffff1673ffffffffffffffffffffffffffffffffffffffff168152602001908152602001600020541015610efe57600080fd5b610f8d81600360008573ffffffffffffffffffffffffffffffffffffffff1673ffffffffffffffffffffffffffffffffffffffff16815260200190815260200160002060003373ffffffffffffffffffffffffffffffffffffffff1673ffffffffffffffffffffffffffffffffffffffff168152602001908152602001600020546112a690919063ffffffff16565b600360008473ffffffffffffffffffffffffffffffffffffffff1673ffffffffffffffffffffffffffffffffffffffff16815260200190815260200160002060003373ffffffffffffffffffffffffffffffffffffffff1673ffffffffffffffffffffffffffffffffffffffff168152602001908152602001600020819055508173ffffffffffffffffffffffffffffffffffffffff1663a9059cbb33836040518363ffffffff1660e01b8152600401611048929190611cb5565b6020604051808303816000875af1158015611067573d6000803e3d6000fd5b505050506040513d601f19601f8201168201806040525081019061108b9190611c43565b61109457600080fd5b7ff341246adaac6f497bc2a656f546ab9e182111d630394f0c57c710a59a2cb567823383600360008773ffffffffffffffffffffffffffffffffffffffff1673ffffffffffffffffffffffffffffffffffffffff16815260200190815260200160002060003373ffffffffffffffffffffffffffffffffffffffff1673ffffffffffffffffffffffffffffffffffffffff168152602001908152602001600020546040516111459493929190611c70565b60405180910390a15050565b60046020528060005260406000206000915090508060000154908060010160009054906101000a900473ffffffffffffffffffffffffffffffffffffffff16908060020160009054906101000a900473ffffffffffffffffffffffffffffffffffffffff16908060030154908060040160009054906101000a900473ffffffffffffffffffffffffffffffffffffffff16908060050154908060060154905087565b6000600360008473ffffffffffffffffffffffffffffffffffffffff1673ffffffffffffffffffffffffffffffffffffffff16815260200190815260200160002060008373ffffffffffffffffffffffffffffffffffffffff1673ffffffffffffffffffffffffffffffffffffffff16815260200190815260200160002054905092915050565b60008082846112899190611d0d565b90508381101561129c5761129b611d63565b5b8091505092915050565b6000828211156112b9576112b8611d63565b5b81836112c59190611d92565b905092915050565b60006112fb60646112ed60015485600501546118fd90919063ffffffff16565b61191390919063ffffffff16565b90506113b48260030154600360008560020160009054906101000a900473ffffffffffffffffffffffffffffffffffffffff1673ffffffffffffffffffffffffffffffffffffffff1673ffffffffffffffffffffffffffffffffffffffff16815260200190815260200160002060003373ffffffffffffffffffffffffffffffffffffffff1673ffffffffffffffffffffffffffffffffffffffff168152602001908152602001600020546112a690919063ffffffff16565b600360008460020160009054906101000a900473ffffffffffffffffffffffffffffffffffffffff1673ffffffffffffffffffffffffffffffffffffffff1673ffffffffffffffffffffffffffffffffffffffff16815260200190815260200160002060003373ffffffffffffffffffffffffffffffffffffffff1673ffffffffffffffffffffffffffffffffffffffff168152602001908152602001600020819055506115338260030154600360008560020160009054906101000a900473ffffffffffffffffffffffffffffffffffffffff1673ffffffffffffffffffffffffffffffffffffffff1673ffffffffffffffffffffffffffffffffffffffff16815260200190815260200160002060008560010160009054906101000a900473ffffffffffffffffffffffffffffffffffffffff1673ffffffffffffffffffffffffffffffffffffffff1673ffffffffffffffffffffffffffffffffffffffff1681526020019081526020016000205461127a90919063ffffffff16565b600360008460020160009054906101000a900473ffffffffffffffffffffffffffffffffffffffff1673ffffffffffffffffffffffffffffffffffffffff1673ffffffffffffffffffffffffffffffffffffffff16815260200190815260200160002060008460010160009054906101000a900473ffffffffffffffffffffffffffffffffffffffff1673ffffffffffffffffffffffffffffffffffffffff1673ffffffffffffffffffffffffffffffffffffffff168152602001908152602001600020819055506116d68260050154600360008560040160009054906101000a900473ffffffffffffffffffffffffffffffffffffffff1673ffffffffffffffffffffffffffffffffffffffff1673ffffffffffffffffffffffffffffffffffffffff16815260200190815260200160002060008560010160009054906101000a900473ffffffffffffffffffffffffffffffffffffffff1673ffffffffffffffffffffffffffffffffffffffff1673ffffffffffffffffffffffffffffffffffffffff168152602001908152602001600020546112a690919063ffffffff16565b600360008460040160009054906101000a900473ffffffffffffffffffffffffffffffffffffffff1673ffffffffffffffffffffffffffffffffffffffff1673ffffffffffffffffffffffffffffffffffffffff16815260200190815260200160002060008460010160009054906101000a900473ffffffffffffffffffffffffffffffffffffffff1673ffffffffffffffffffffffffffffffffffffffff1673ffffffffffffffffffffffffffffffffffffffff168152602001908152602001600020819055506118558260050154600360008560040160009054906101000a900473ffffffffffffffffffffffffffffffffffffffff1673ffffffffffffffffffffffffffffffffffffffff1673ffffffffffffffffffffffffffffffffffffffff16815260200190815260200160002060003373ffffffffffffffffffffffffffffffffffffffff1673ffffffffffffffffffffffffffffffffffffffff1681526020019081526020016000205461127a90919063ffffffff16565b600360008460040160009054906101000a900473ffffffffffffffffffffffffffffffffffffffff1673ffffffffffffffffffffffffffffffffffffffff1673ffffffffffffffffffffffffffffffffffffffff16815260200190815260200160002060003373ffffffffffffffffffffffffffffffffffffffff1673ffffffffffffffffffffffffffffffffffffffff168152602001908152602001600020819055505050565b6000818361190b9190611dc6565b905092915050565b600080821161192157600080fd5b81838161193157611930611e20565b5b04905092915050565b600080fd5b600073ffffffffffffffffffffffffffffffffffffffff82169050919050565b600061196a8261193f565b9050919050565b61197a8161195f565b811461198557600080fd5b50565b60008135905061199781611971565b92915050565b6000819050919050565b6119b08161199d565b81146119bb57600080fd5b50565b6000813590506119cd816119a7565b92915050565b600080604083850312156119ea576119e961193a565b5b60006119f885828601611988565b9250506020611a09858286016119be565b9150509250929050565b600060208284031215611a2957611a2861193a565b5b6000611a37848285016119be565b91505092915050565b60008115159050919050565b611a5581611a40565b82525050565b6000602082019050611a706000830184611a4c565b92915050565b60008060408385031215611a8d57611a8c61193a565b5b6000611a9b85828601611988565b9250506020611aac85828601611988565b9150509250929050565b611abf8161199d565b82525050565b6000602082019050611ada6000830184611ab6565b92915050565b611ae98161195f565b82525050565b6000602082019050611b046000830184611ae0565b92915050565b60008060008060808587031215611b2457611b2361193a565b5b6000611b3287828801611988565b9450506020611b43878288016119be565b9350506040611b5487828801611988565b9250506060611b65878288016119be565b91505092959194509250565b600060e082019050611b86600083018a611ab6565b611b936020830189611ae0565b611ba06040830188611ae0565b611bad6060830187611ab6565b611bba6080830186611ae0565b611bc760a0830185611ab6565b611bd460c0830184611ab6565b98975050505050505050565b6000606082019050611bf56000830186611ae0565b611c026020830185611ae0565b611c0f6040830184611ab6565b949350505050565b611c2081611a40565b8114611c2b57600080fd5b50565b600081519050611c3d81611c17565b92915050565b600060208284031215611c5957611c5861193a565b5b6000611c6784828501611c2e565b91505092915050565b6000608082019050611c856000830187611ae0565b611c926020830186611ae0565b611c9f6040830185611ab6565b611cac6060830184611ab6565b95945050505050565b6000604082019050611cca6000830185611ae0565b611cd76020830184611ab6565b9392505050565b7f4e487b7100000000000000000000000000000000000000000000000000000000600052601160045260246000fd5b6000611d188261199d565b9150611d238361199d565b9250827fffffffffffffffffffffffffffffffffffffffffffffffffffffffffffffffff03821115611d5857611d57611cde565b5b828201905092915050565b7f4e487b7100000000000000000000000000000000000000000000000000000000600052600160045260246000fd5b6000611d9d8261199d565b9150611da88361199d565b925082821015611dbb57611dba611cde565b5b828203905092915050565b6000611dd18261199d565b9150611ddc8361199d565b9250817fffffffffffffffffffffffffffffffffffffffffffffffffffffffffffffffff0483118215151615611e1557611e14611cde565b5b828202905092915050565b7f4e487b7100000000000000000000000000000000000000000000000000000000600052601260045260246000fdfea2646970667358221220e0c5ac81884da0f3aab415adf2ad791228cbf3da12425013753f783eb9ee531964736f6c634300080c0033",
  "immutableReferences": {},
  "source": "// SPDX-License-Identifier: MIT\npragma solidity >=0.4.22 <0.9.0;\n\nimport \"./NToken.sol\";\n\ncontract Exchange {\n    using SafeMath for uint256;\n\n    address public feeAccount; //the account who received fees\n    uint256 public feePercent;\n    address constant ETHER = address(0);\n    uint256 public _orderCount;\n    mapping(address => mapping(address => uint256)) public tokens;\n    mapping(uint256 => _Order) public orders;\n    mapping(uint256 => bool) public canceldOrders;\n\n    struct _Order {\n        uint256 id;\n        address user; //the person who made the order\n        address tokenGet; //the address of the token they want to purchase\n        uint256 amountGet; //the amount of the token they want to purchase\n        address tokenGive; //the token they gonna use in the treat\n        uint256 amountGive; //the amount they gonna give\n        uint256 timestamp;\n    }\n\n    event Deposit(\n        address _token,\n        address _user,\n        uint256 _amount,\n        uint256 _balance\n    );\n    event Withdraw(\n        address _token,\n        address _user,\n        uint256 _amount,\n        uint256 _balance\n    );\n    event Order(\n        uint256 id,\n        address user,\n        address tokenGet,\n        uint256 amountGet,\n        address tokenGive,\n        uint256 amountGive,\n        uint256 timestamp\n    );\n    event Cancel(\n        uint256 id,\n        address user,\n        address tokenGet,\n        uint256 amountGet,\n        address tokenGive,\n        uint256 amountGive,\n        uint256 timestamp\n    );\n\n    constructor(address _feeAccount, uint256 _feePercent) {\n        feeAccount = _feeAccount;\n        feePercent = _feePercent;\n    }\n\n    fallback() external {\n        revert();\n    }\n\n    function depositEther() public payable {\n        tokens[ETHER][msg.sender] = tokens[ETHER][msg.sender].add(msg.value);\n        emit Deposit(ETHER, msg.sender, msg.value, tokens[ETHER][msg.sender]);\n    }\n\n    function withdrawEther(uint256 _amount) public {\n        require(tokens[ETHER][msg.sender] >= _amount);\n        tokens[ETHER][msg.sender] = tokens[ETHER][msg.sender].sub(_amount);\n        payable(msg.sender).transfer(_amount);\n        emit Withdraw(ETHER, msg.sender, _amount, tokens[ETHER][msg.sender]);\n    }\n\n    function depositToken(address _token, uint256 _amount) public {\n        require(_token != ETHER); //don't allow ether deposits\n        require(\n            NToken(_token).transferFrom(msg.sender, address(this), _amount)\n        ); //send tokens to this contract\n        tokens[_token][msg.sender] = tokens[_token][msg.sender].add(_amount); //manage deposit - update balance\n        emit Deposit(_token, msg.sender, _amount, tokens[_token][msg.sender]); //emit event\n    }\n\n    function withdrawToken(address _token, uint256 _amount) public {\n        require(_token != ETHER);\n        require(tokens[_token][msg.sender] >= _amount);\n        tokens[_token][msg.sender] = tokens[_token][msg.sender].sub(_amount);\n        require(NToken(_token).transfer(msg.sender, _amount));\n        emit Withdraw(_token, msg.sender, _amount, tokens[_token][msg.sender]);\n    }\n\n    function balanceOf(address _token, address _user)\n        public\n        view\n        returns (uint256)\n    {\n        return tokens[_token][_user];\n    }\n\n    function makeOrder(\n        address _tokenGet,\n        uint256 _amountGet,\n        address _tokenGive,\n        uint256 _amountGive\n    ) public {\n        _orderCount = _orderCount.add(1);\n        orders[_orderCount] = _Order(\n            _orderCount,\n            msg.sender,\n            _tokenGet,\n            _amountGet,\n            _tokenGive,\n            _amountGive,\n            block.timestamp\n        );\n        emit Order(\n            _orderCount,\n            msg.sender,\n            _tokenGet,\n            _amountGet,\n            _tokenGive,\n            _amountGive,\n            block.timestamp\n        );\n    }\n\n    function cancelOrder(uint256 _id) public{\n        _Order storage _order = orders[_id];\n        require(address(_order.user) == msg.sender);\n        require(_order.id == _id);\n        canceldOrders[_id] = true;\n        emit Cancel(_id, msg.sender, _order.tokenGet, _order.amountGet, _order.tokenGive, _order.amountGive, _order.timestamp);\n    }\n\n    function fillOrder(uint256 _id) public{\n        _Order storage _order = orders[_id];\n        _trade(_order);\n    }\n\n    function _trade(_Order storage _order) internal {\n        ///Fee paid by the user that fills the order, a.k.a [msg.sender]\n        // Fee deducted from _amountGet\n        uint256 _feeAmount = _order\n        .amountGive\n        .mul(feePercent)\n        .div(100);\n\n        //execute trade\n        tokens[_order.tokenGet][msg.sender] = tokens[_order.tokenGet][msg.sender].sub(_order.amountGet);\n        tokens[_order.tokenGet][_order.user] = tokens[_order.tokenGet][_order.user].add(_order.amountGet);\n        tokens[_order.tokenGive][_order.user] = tokens[_order.tokenGive][_order.user].sub(_order.amountGive);\n        tokens[_order.tokenGive][msg.sender] = tokens[_order.tokenGive][msg.sender].add(_order.amountGive);\n\n    }\n}\n\n//TODO:\n//[x] set the fee account\n//[x] deposit tokens\n//[x] withdraw tokens\n//[x] deposit ether\n//[x] withdraw ether\n//[x] check balances\n//[x] make order\n//[x] cancel order\n//[] fill order\n//[] charge fees\n",
  "sourcePath": "/winC/Users/NEZAR/Flutter projects/nwallet/lib/contracts/Exchange.sol",
  "compiler": {
    "name": "solc",
    "version": "0.8.12+commit.f00d7308.Emscripten.clang"
  },
  "schemaVersion": "3.4.6",
  "updatedAt": "2022-04-01T09:51:28.507Z",
  "devdoc": {
    "kind": "dev",
    "methods": {},
    "version": 1
  },
  "userdoc": {
    "kind": "user",
    "methods": {},
    "version": 1
  }
}