{
  "contractName": "NToken",
  "abi": [
    {
      "inputs": [],
      "stateMutability": "nonpayable",
      "type": "constructor"
    },
    {
      "anonymous": false,
      "inputs": [
        {
          "indexed": true,
          "internalType": "address",
          "name": "from",
          "type": "address"
        },
        {
          "indexed": true,
          "internalType": "address",
          "name": "to",
          "type": "address"
        },
        {
          "indexed": false,
          "internalType": "uint256",
          "name": "value",
          "type": "uint256"
        }
      ],
      "name": "Transfer",
      "type": "event"
    },
    {
      "inputs": [
        {
          "internalType": "address",
          "name": "",
          "type": "address"
        },
        {
          "internalType": "address",
          "name": "",
          "type": "address"
        }
      ],
      "name": "allowance",
      "outputs": [
        {
          "internalType": "uint256",
          "name": "",
          "type": "uint256"
        }
      ],
      "stateMutability": "view",
      "type": "function"
    },
    {
      "inputs": [
        {
          "internalType": "address",
          "name": "",
          "type": "address"
        }
      ],
      "name": "balanceOf",
      "outputs": [
        {
          "internalType": "uint256",
          "name": "",
          "type": "uint256"
        }
      ],
      "stateMutability": "view",
      "type": "function"
    },
    {
      "inputs": [],
      "name": "decimals",
      "outputs": [
        {
          "internalType": "uint256",
          "name": "",
          "type": "uint256"
        }
      ],
      "stateMutability": "view",
      "type": "function"
    },
    {
      "inputs": [],
      "name": "name",
      "outputs": [
        {
          "internalType": "string",
          "name": "",
          "type": "string"
        }
      ],
      "stateMutability": "view",
      "type": "function"
    },
    {
      "inputs": [],
      "name": "symbol",
      "outputs": [
        {
          "internalType": "string",
          "name": "",
          "type": "string"
        }
      ],
      "stateMutability": "view",
      "type": "function"
    },
    {
      "inputs": [],
      "name": "totalSupply",
      "outputs": [
        {
          "internalType": "uint256",
          "name": "",
          "type": "uint256"
        }
      ],
      "stateMutability": "view",
      "type": "function"
    },
    {
      "inputs": [
        {
          "internalType": "address",
          "name": "_to",
          "type": "address"
        },
        {
          "internalType": "uint256",
          "name": "_value",
          "type": "uint256"
        }
      ],
      "name": "transfer",
      "outputs": [
        {
          "internalType": "bool",
          "name": "success",
          "type": "bool"
        }
      ],
      "stateMutability": "nonpayable",
      "type": "function"
    },
    {
      "inputs": [
        {
          "internalType": "address",
          "name": "_spender",
          "type": "address"
        },
        {
          "internalType": "uint256",
          "name": "_value",
          "type": "uint256"
        }
      ],
      "name": "approve",
      "outputs": [
        {
          "internalType": "bool",
          "name": "success",
          "type": "bool"
        }
      ],
      "stateMutability": "nonpayable",
      "type": "function"
    }
  ],
  "bytecode": "0x60806040526040518060400160405280600a81526020017f4e657a7a20546f6b656e00000000000000000000000000000000000000000000815250600090805190602001906200005192919062000126565b506040518060400160405280600481526020017f4e657a7a00000000000000000000000000000000000000000000000000000000815250600190805190602001906200009f92919062000126565b506012600255348015620000b257600080fd5b50600254600a620000c4919062000363565b620f4240620000d49190620003b4565b600381905550600354600460003373ffffffffffffffffffffffffffffffffffffffff1673ffffffffffffffffffffffffffffffffffffffff168152602001908152602001600020819055506200047a565b828054620001349062000444565b90600052602060002090601f016020900481019282620001585760008555620001a4565b82601f106200017357805160ff1916838001178555620001a4565b82800160010185558215620001a4579182015b82811115620001a357825182559160200191906001019062000186565b5b509050620001b39190620001b7565b5090565b5b80821115620001d2576000816000905550600101620001b8565b5090565b7f4e487b7100000000000000000000000000000000000000000000000000000000600052601160045260246000fd5b60008160011c9050919050565b6000808291508390505b600185111562000264578086048111156200023c576200023b620001d6565b5b60018516156200024c5780820291505b80810290506200025c8562000205565b94506200021c565b94509492505050565b6000826200027f576001905062000352565b816200028f576000905062000352565b8160018114620002a85760028114620002b357620002e9565b600191505062000352565b60ff841115620002c857620002c7620001d6565b5b8360020a915084821115620002e257620002e1620001d6565b5b5062000352565b5060208310610133831016604e8410600b8410161715620003235782820a9050838111156200031d576200031c620001d6565b5b62000352565b62000332848484600162000212565b925090508184048111156200034c576200034b620001d6565b5b81810290505b9392505050565b6000819050919050565b6000620003708262000359565b91506200037d8362000359565b9250620003ac7fffffffffffffffffffffffffffffffffffffffffffffffffffffffffffffffff84846200026d565b905092915050565b6000620003c18262000359565b9150620003ce8362000359565b9250817fffffffffffffffffffffffffffffffffffffffffffffffffffffffffffffffff04831182151516156200040a5762000409620001d6565b5b828202905092915050565b7f4e487b7100000000000000000000000000000000000000000000000000000000600052602260045260246000fd5b600060028204905060018216806200045d57607f821691505b6020821081141562000474576200047362000415565b5b50919050565b610a06806200048a6000396000f3fe608060405234801561001057600080fd5b50600436106100885760003560e01c806370a082311161005b57806370a082311461011757806395d89b4114610147578063a9059cbb14610165578063dd62ed3e1461019557610088565b806306fdde031461008d578063095ea7b3146100ab57806318160ddd146100db578063313ce567146100f9575b600080fd5b6100956101c5565b6040516100a291906106bf565b60405180910390f35b6100c560048036038101906100c0919061077a565b610253565b6040516100d291906107d5565b60405180910390f35b6100e36102dc565b6040516100f091906107ff565b60405180910390f35b6101016102e2565b60405161010e91906107ff565b60405180910390f35b610131600480360381019061012c919061081a565b6102e8565b60405161013e91906107ff565b60405180910390f35b61014f610300565b60405161015c91906106bf565b60405180910390f35b61017f600480360381019061017a919061077a565b61038e565b60405161018c91906107d5565b60405180910390f35b6101af60048036038101906101aa9190610847565b6105ae565b6040516101bc91906107ff565b60405180910390f35b600080546101d2906108b6565b80601f01602080910402602001604051908101604052809291908181526020018280546101fe906108b6565b801561024b5780601f106102205761010080835404028352916020019161024b565b820191906000526020600020905b81548152906001019060200180831161022e57829003601f168201915b505050505081565b600081600560003373ffffffffffffffffffffffffffffffffffffffff1673ffffffffffffffffffffffffffffffffffffffff16815260200190815260200160002060008573ffffffffffffffffffffffffffffffffffffffff1673ffffffffffffffffffffffffffffffffffffffff1681526020019081526020016000208190555092915050565b60035481565b60025481565b60046020528060005260406000206000915090505481565b6001805461030d906108b6565b80601f0160208091040260200160405190810160405280929190818152602001828054610339906108b6565b80156103865780601f1061035b57610100808354040283529160200191610386565b820191906000526020600020905b81548152906001019060200180831161036957829003601f168201915b505050505081565b60008073ffffffffffffffffffffffffffffffffffffffff168373ffffffffffffffffffffffffffffffffffffffff1614156103c957600080fd5b81600460003373ffffffffffffffffffffffffffffffffffffffff1673ffffffffffffffffffffffffffffffffffffffff16815260200190815260200160002054101561041557600080fd5b61046782600460003373ffffffffffffffffffffffffffffffffffffffff1673ffffffffffffffffffffffffffffffffffffffff168152602001908152602001600020546105d390919063ffffffff16565b600460003373ffffffffffffffffffffffffffffffffffffffff1673ffffffffffffffffffffffffffffffffffffffff168152602001908152602001600020819055506104fc82600460008673ffffffffffffffffffffffffffffffffffffffff1673ffffffffffffffffffffffffffffffffffffffff168152602001908152602001600020546105fa90919063ffffffff16565b600460008573ffffffffffffffffffffffffffffffffffffffff1673ffffffffffffffffffffffffffffffffffffffff168152602001908152602001600020819055508273ffffffffffffffffffffffffffffffffffffffff163373ffffffffffffffffffffffffffffffffffffffff167fddf252ad1be2c89b69c2b068fc378daa952ba7f163c4a11628f55a4df523b3ef8460405161059c91906107ff565b60405180910390a36001905092915050565b6005602052816000526040600020602052806000526040600020600091509150505481565b6000828211156105e6576105e56108e8565b5b81836105f29190610946565b905092915050565b6000808284610609919061097a565b90508381101561061c5761061b6108e8565b5b8091505092915050565b600081519050919050565b600082825260208201905092915050565b60005b83811015610660578082015181840152602081019050610645565b8381111561066f576000848401525b50505050565b6000601f19601f8301169050919050565b600061069182610626565b61069b8185610631565b93506106ab818560208601610642565b6106b481610675565b840191505092915050565b600060208201905081810360008301526106d98184610686565b905092915050565b600080fd5b600073ffffffffffffffffffffffffffffffffffffffff82169050919050565b6000610711826106e6565b9050919050565b61072181610706565b811461072c57600080fd5b50565b60008135905061073e81610718565b92915050565b6000819050919050565b61075781610744565b811461076257600080fd5b50565b6000813590506107748161074e565b92915050565b60008060408385031215610791576107906106e1565b5b600061079f8582860161072f565b92505060206107b085828601610765565b9150509250929050565b60008115159050919050565b6107cf816107ba565b82525050565b60006020820190506107ea60008301846107c6565b92915050565b6107f981610744565b82525050565b600060208201905061081460008301846107f0565b92915050565b6000602082840312156108305761082f6106e1565b5b600061083e8482850161072f565b91505092915050565b6000806040838503121561085e5761085d6106e1565b5b600061086c8582860161072f565b925050602061087d8582860161072f565b9150509250929050565b7f4e487b7100000000000000000000000000000000000000000000000000000000600052602260045260246000fd5b600060028204905060018216806108ce57607f821691505b602082108114156108e2576108e1610887565b5b50919050565b7f4e487b7100000000000000000000000000000000000000000000000000000000600052600160045260246000fd5b7f4e487b7100000000000000000000000000000000000000000000000000000000600052601160045260246000fd5b600061095182610744565b915061095c83610744565b92508282101561096f5761096e610917565b5b828203905092915050565b600061098582610744565b915061099083610744565b9250827fffffffffffffffffffffffffffffffffffffffffffffffffffffffffffffffff038211156109c5576109c4610917565b5b82820190509291505056fea26469706673582212200b485122141eae6cd3080db70dc6ddcd2618b5f928a2a4000f00a7e9bd88888264736f6c634300080c0033",
  "immutableReferences": {},
  "source": "// SPDX-License-Identifier: MIT\npragma solidity >=0.4.22 <0.9.0;\n\ncontract NToken {\n    using SafeMath for uint256;\n\n    string public name = \"Nezz Token\";\n    string public symbol = \"Nezz\";\n    uint256 public decimals = 18;\n    uint256 public totalSupply;\n    mapping(address => uint256) public balanceOf;\n    mapping(address => mapping(address => uint256)) public allowance;\n\n    event Transfer(address indexed from,address indexed to,uint256 value);\n\n    constructor() public {\n        totalSupply = 1000000 * (10**decimals); //the total supply is\n        balanceOf[msg.sender] = totalSupply; //the one has created of the token have all of it's\n        // the sender is the one how deploy the contract\n    }\n\n    function transfer(address _to, uint256 _value)\n        public\n        returns (bool success)\n    {\n        require(_to != address(0));\n        require(balanceOf[msg.sender] >= _value);\n        balanceOf[msg.sender] = balanceOf[msg.sender].sub(_value);\n        balanceOf[_to] = balanceOf[_to].add(_value);\n        emit Transfer(msg.sender, _to, _value);\n        return true;\n    }\n\n    function approve(address _spender , uint256 _value) public returns (bool success) {\n        allowance[msg.sender][_spender] = _value;\n    }\n\n}\n\nlibrary SafeMath {\n    function sub(uint256 a, uint256 b) internal pure returns (uint256) {\n        assert(b <= a);\n        return a - b;\n    }\n\n    function add(uint256 a, uint256 b) internal pure returns (uint256) {\n        uint256 c = a + b;\n        assert(c >= a);\n        return c;\n    }\n\n    //  function sub(\n    //     uint256 a,\n    //     uint256 b,\n    //     string memory errorMessage\n    // ) internal pure returns (uint256) {\n    //     unchecked {\n    //         require(b <= a, errorMessage);\n    //         return a - b;\n    //     }\n    // }\n}\n",
  "sourcePath": "/winC/Users/NEZAR/Flutter projects/nwallet/lib/contracts/NToken.sol",
  "compiler": {
    "name": "solc",
    "version": "0.8.12+commit.f00d7308.Emscripten.clang"
  },
  "schemaVersion": "3.4.6",
  "updatedAt": "2022-03-27T16:41:46.004Z",
  "devdoc": {
    "kind": "dev",
    "methods": {},
    "version": 1
  },
  "userdoc": {
    "kind": "user",
    "methods": {},
    "version": 1
  }
}