{
  "contractName": "NToken",
  "abi": [
    {
      "inputs": [],
      "stateMutability": "nonpayable",
      "type": "constructor"
    },
    {
      "inputs": [
        {
          "internalType": "address",
          "name": "",
          "type": "address"
        }
      ],
      "name": "balanceOf",
      "outputs": [
        {
          "internalType": "uint256",
          "name": "",
          "type": "uint256"
        }
      ],
      "stateMutability": "view",
      "type": "function"
    },
    {
      "inputs": [],
      "name": "decimals",
      "outputs": [
        {
          "internalType": "uint256",
          "name": "",
          "type": "uint256"
        }
      ],
      "stateMutability": "view",
      "type": "function"
    },
    {
      "inputs": [],
      "name": "name",
      "outputs": [
        {
          "internalType": "string",
          "name": "",
          "type": "string"
        }
      ],
      "stateMutability": "view",
      "type": "function"
    },
    {
      "inputs": [],
      "name": "symbol",
      "outputs": [
        {
          "internalType": "string",
          "name": "",
          "type": "string"
        }
      ],
      "stateMutability": "view",
      "type": "function"
    },
    {
      "inputs": [],
      "name": "totalSupply",
      "outputs": [
        {
          "internalType": "uint256",
          "name": "",
          "type": "uint256"
        }
      ],
      "stateMutability": "view",
      "type": "function"
    },
    {
      "inputs": [
        {
          "internalType": "address",
          "name": "_to",
          "type": "address"
        },
        {
          "internalType": "uint256",
          "name": "_value",
          "type": "uint256"
        }
      ],
      "name": "transfer",
      "outputs": [
        {
          "internalType": "bool",
          "name": "success",
          "type": "bool"
        }
      ],
      "stateMutability": "nonpayable",
      "type": "function"
    }
  ],
  "bytecode": "0x60806040526040518060400160405280600a81526020017f4e657a7a20546f6b656e00000000000000000000000000000000000000000000815250600090805190602001906200005192919062000126565b506040518060400160405280600481526020017f4e657a7a00000000000000000000000000000000000000000000000000000000815250600190805190602001906200009f92919062000126565b506012600255348015620000b257600080fd5b50600254600a620000c4919062000363565b620f4240620000d49190620003b4565b600381905550600354600460003373ffffffffffffffffffffffffffffffffffffffff1673ffffffffffffffffffffffffffffffffffffffff168152602001908152602001600020819055506200047a565b828054620001349062000444565b90600052602060002090601f016020900481019282620001585760008555620001a4565b82601f106200017357805160ff1916838001178555620001a4565b82800160010185558215620001a4579182015b82811115620001a357825182559160200191906001019062000186565b5b509050620001b39190620001b7565b5090565b5b80821115620001d2576000816000905550600101620001b8565b5090565b7f4e487b7100000000000000000000000000000000000000000000000000000000600052601160045260246000fd5b60008160011c9050919050565b6000808291508390505b600185111562000264578086048111156200023c576200023b620001d6565b5b60018516156200024c5780820291505b80810290506200025c8562000205565b94506200021c565b94509492505050565b6000826200027f576001905062000352565b816200028f576000905062000352565b8160018114620002a85760028114620002b357620002e9565b600191505062000352565b60ff841115620002c857620002c7620001d6565b5b8360020a915084821115620002e257620002e1620001d6565b5b5062000352565b5060208310610133831016604e8410600b8410161715620003235782820a9050838111156200031d576200031c620001d6565b5b62000352565b62000332848484600162000212565b925090508184048111156200034c576200034b620001d6565b5b81810290505b9392505050565b6000819050919050565b6000620003708262000359565b91506200037d8362000359565b9250620003ac7fffffffffffffffffffffffffffffffffffffffffffffffffffffffffffffffff84846200026d565b905092915050565b6000620003c18262000359565b9150620003ce8362000359565b9250817fffffffffffffffffffffffffffffffffffffffffffffffffffffffffffffffff04831182151516156200040a5762000409620001d6565b5b828202905092915050565b7f4e487b7100000000000000000000000000000000000000000000000000000000600052602260045260246000fd5b600060028204905060018216806200045d57607f821691505b6020821081141562000474576200047362000415565b5b50919050565b6107a8806200048a6000396000f3fe608060405234801561001057600080fd5b50600436106100625760003560e01c806306fdde031461006757806318160ddd14610085578063313ce567146100a357806370a08231146100c157806395d89b41146100f1578063a9059cbb1461010f575b600080fd5b61006f61013f565b60405161007c91906104a1565b60405180910390f35b61008d6101cd565b60405161009a91906104dc565b60405180910390f35b6100ab6101d3565b6040516100b891906104dc565b60405180910390f35b6100db60048036038101906100d6919061055a565b6101d9565b6040516100e891906104dc565b60405180910390f35b6100f96101f1565b60405161010691906104a1565b60405180910390f35b610129600480360381019061012491906105b3565b61027f565b604051610136919061060e565b60405180910390f35b6000805461014c90610658565b80601f016020809104026020016040519081016040528092919081815260200182805461017890610658565b80156101c55780601f1061019a576101008083540402835291602001916101c5565b820191906000526020600020905b8154815290600101906020018083116101a857829003601f168201915b505050505081565b60035481565b60025481565b60046020528060005260406000206000915090505481565b600180546101fe90610658565b80601f016020809104026020016040519081016040528092919081815260200182805461022a90610658565b80156102775780601f1061024c57610100808354040283529160200191610277565b820191906000526020600020905b81548152906001019060200180831161025a57829003601f168201915b505050505081565b60006102d382600460003373ffffffffffffffffffffffffffffffffffffffff1673ffffffffffffffffffffffffffffffffffffffff168152602001908152602001600020546103b590919063ffffffff16565b600460003373ffffffffffffffffffffffffffffffffffffffff1673ffffffffffffffffffffffffffffffffffffffff1681526020019081526020016000208190555061036882600460008673ffffffffffffffffffffffffffffffffffffffff1673ffffffffffffffffffffffffffffffffffffffff168152602001908152602001600020546103dc90919063ffffffff16565b600460008573ffffffffffffffffffffffffffffffffffffffff1673ffffffffffffffffffffffffffffffffffffffff168152602001908152602001600020819055506001905092915050565b6000828211156103c8576103c761068a565b5b81836103d491906106e8565b905092915050565b60008082846103eb919061071c565b9050838110156103fe576103fd61068a565b5b8091505092915050565b600081519050919050565b600082825260208201905092915050565b60005b83811015610442578082015181840152602081019050610427565b83811115610451576000848401525b50505050565b6000601f19601f8301169050919050565b600061047382610408565b61047d8185610413565b935061048d818560208601610424565b61049681610457565b840191505092915050565b600060208201905081810360008301526104bb8184610468565b905092915050565b6000819050919050565b6104d6816104c3565b82525050565b60006020820190506104f160008301846104cd565b92915050565b600080fd5b600073ffffffffffffffffffffffffffffffffffffffff82169050919050565b6000610527826104fc565b9050919050565b6105378161051c565b811461054257600080fd5b50565b6000813590506105548161052e565b92915050565b6000602082840312156105705761056f6104f7565b5b600061057e84828501610545565b91505092915050565b610590816104c3565b811461059b57600080fd5b50565b6000813590506105ad81610587565b92915050565b600080604083850312156105ca576105c96104f7565b5b60006105d885828601610545565b92505060206105e98582860161059e565b9150509250929050565b60008115159050919050565b610608816105f3565b82525050565b600060208201905061062360008301846105ff565b92915050565b7f4e487b7100000000000000000000000000000000000000000000000000000000600052602260045260246000fd5b6000600282049050600182168061067057607f821691505b6020821081141561068457610683610629565b5b50919050565b7f4e487b7100000000000000000000000000000000000000000000000000000000600052600160045260246000fd5b7f4e487b7100000000000000000000000000000000000000000000000000000000600052601160045260246000fd5b60006106f3826104c3565b91506106fe836104c3565b925082821015610711576107106106b9565b5b828203905092915050565b6000610727826104c3565b9150610732836104c3565b9250827fffffffffffffffffffffffffffffffffffffffffffffffffffffffffffffffff03821115610767576107666106b9565b5b82820190509291505056fea2646970667358221220aa56f5a93f1f3fcc955bbdfabe1867ad75692fbccb23e91ad10954c8a7cf48f264736f6c634300080c0033",
  "immutableReferences": {},
  "source": "// SPDX-License-Identifier: MIT\npragma solidity >=0.4.22 <0.9.0;\n\ncontract NToken {\n    using SafeMath for uint256;\n\n    string public name = \"Nezz Token\";\n    string public symbol = \"Nezz\";\n    uint256 public decimals = 18;\n    uint256 public totalSupply;\n\n    mapping(address => uint256) public balanceOf;\n\n    constructor() public {\n        totalSupply = 1000000 * (10**decimals); //the total supply is\n        balanceOf[msg.sender] = totalSupply; //the one has created of the token have all of it's\n        // the sender is the one how deploy the contract\n    }\n\n    function transfer(address _to, uint256 _value)\n        public\n        returns (bool success)\n    {\n        balanceOf[msg.sender] = balanceOf[msg.sender].sub(_value);\n        balanceOf[_to] = balanceOf[_to].add(_value);\n        return true;\n    }\n}\n\nlibrary SafeMath {\n    function sub(uint256 a, uint256 b) internal pure returns (uint256) {\n        assert(b <= a);\n        return a - b;\n    }\n\n    function add(uint256 a, uint256 b) internal pure returns (uint256) {\n        uint256 c = a + b;\n        assert(c >= a);\n        return c;\n    }\n}\n",
  "sourcePath": "/winC/Users/NEZAR/Flutter projects/nwallet/lib/contracts/NToken.sol",
  "compiler": {
    "name": "solc",
    "version": "0.8.12+commit.f00d7308.Emscripten.clang"
  },
  "schemaVersion": "3.4.6",
  "updatedAt": "2022-03-26T16:14:38.394Z",
  "devdoc": {
    "kind": "dev",
    "methods": {},
    "version": 1
  },
  "userdoc": {
    "kind": "user",
    "methods": {},
    "version": 1
  }
}